:060000000A128A11002A19
:10000800F000030EF1000B1912200C181A208C189E
:100018002220710E8300F00E700E09000313831264
:10002800FC3081000B11A10A9422080003138312EB
:10003800C2308F00F7308E000C1008008C100800BA
:100200008A010A140F3982073F3406345B344F34B5
:1002100066346D347D3407347F346F3477347C3406
:0802200039345E347934713485
:1004000041220F2216222322332250220313831269
:100410005D2264226B22722279228722082A03132A
:1004200083160F140F138F160F160800031383166D
:100430008112811101158110011403138312FC3004
:1004400081000B1108000313831290109011901675
:1004500010161013101403138312C2308F00F730DC
:100460008E000C100800031383160530920003134E
:100470008312921412141217921612169215121554
:100480000800031783168801890103138316870167
:10049000880103138312870188011330A700080025
:1004A000031383160C148C14031383120B178B176E
:1004B0008B160B110C108C10080021080A3C031D30
:1004C0000800A20AA10108002208063C031D08003A
:1004D000A30AA201080023080A3C031D0800A40A7D
:1004E000A30108002408063C031D0800A70AA40174
:1004F00008000A302702031C802AA700A60A792ACE
:1005000001302702031C0800A700A50A802A23083F
:100510000021B10024080021B00025080021AF000F
:1005200026080021AE000800081088100811881164
:10053000A9189D2A2918A62AA02A2918B22AAC2A65
:100540002E0887000814A910291408002F08870016
:100550008814A91429100800300887000815A91468
:1005600029140800310887008815A91029100800EF
:04400E00C430FF3F7C
:00000001FF
