:060000000A128A11502BC8
:10000800F000030EF1000B1914200C181B208C189B
:100018002E200B184320710E8300F00E700E09007D
:1000280003138312FC3081000B11192608000313F7
:100038008312C2308F00F7308E000C104F20051B42
:10004800C820091C0800DA0A5A083C3C031D0800AD
:10005800091008008C10DB0ADD0A5D08053A031D4B
:100068003728DC0ADD01851F080047082106031D23
:10007800080048082206031D080009140800061C89
:10008800D520861CDC20061D1121861DC021061ED8
:1000980010220B100800A00A20083C3A031D080093
:1000A800A10AA00121083C3A031D0800A20AA101E7
:1000B8002208183A031D0800A201AF0A3008013AC5
:1000C800031D6828AA2008003008023A031D6E287C
:1000D800C02008003008033A031D7428AA2008002D
:1000E8003008043A031D7A28B82008003008053A79
:1000F800031D8028AA2008003008063A031D862818
:10010800B82008003008073A031D8C28AA200800E8
:100118003008083A031D9228AA2008003008093A36
:10012800031D9828B820080030080A3A031D9E28A5
:10013800AA20080030080B3A031DA428B82008009C
:1001480030080C3A031DAA28AA2008002F081F3CD3
:10015800031808000130AF00B00A30080D3A031D3B
:1001680008000130B00008002F081E3C03180800E2
:100178000130AF00B00A08002F081C3C0318080023
:100188000130AF00B00A0800BB03BB1F08003B30BA
:10019800BB00BC03BC1F080005130914BB01BC014C
:1001A8000800051A0800D90A59080339D9000800B7
:1001B8000518E4288518EF280519F928851905294F
:1001C800051AE828051608000512A0012908A1004B
:1001D8002A08A2000800051AF328051608000512C7
:1001E8003608B0003508AF000800051AFE280516C5
:1001F80005130800051205174108BB004208BC009A
:100208000800051A0A29051685130800051285171E
:100218004D08C7004E08C800080009180910051E37
:10022800080005181D2985182E29051997298519EB
:10023800AF29851E20292729A90A29083C3A031D28
:100248000800A9010800AA0A2A08183A031D08008C
:10025800AA010800851E31293929B60A36080D3A3F
:10026800031D08000130B6000800B50A3608013A37
:10027800031D4029822108003608023A031D462939
:10028800902108003608033A031D4C2982210800F2
:100298003608043A031D5229892108003608053A10
:1002A800031D5829822108003608063A031D5E29D5
:1002B800892108003608073A031D642982210800AD
:1002C8003608083A031D6A29822108003608093AC7
:1002D800031D70298921080036080A3A031D76296A
:1002E8008221080036080B3A031D7C298921080061
:1002F80036080C3A031D82298221080035081F3C64
:10030800031808000130B500080035081E3C031822
:1003180008000130B500080035081C3C0318080027
:100328000130B5000800851E9A29A129C20A420891
:10033800643A031D0800C2010800C10A41083C3A9A
:10034800031D08004208003A031DAD290130C10011
:100358000800C1010800851EB229B929CD0A4D0837
:100368003C3A031D0800CD010800CE0A4E08183A91
:10037800031D0800CE01080009180910051E080011
:100388000518CC298518DB290519EA298519012AB8
:10039800851ECF29D529A903A91F08003B30A9002C
:1003A8000800AA03AA1F08001730AA000800851E23
:1003B800DE29E429B603031D08000C30B600080046
:1003C800B503031D08001F30B5000800851EED2980
:1003D800F329C203C21F08006330C2000800C1032A
:1003E800C11FF8293B30C100031D08004208003A2C
:1003F800031D08003B30C1000800851E042A0A2A94
:10040800CD03CD1F08003B30CD000800CE03CE1F22
:1004180008001730CE0008000518182A8518182A71
:100428000519182A8519202A051E0800851A1E2A6A
:1004380085161F2A85120800051E282A851A262ACD
:100448008516272A85120800851B2C2A851708007F
:06045800851308000800F6
:100600008A010A148A140F3982073F3406345B3496
:100610004F3466346D347D3407347F346F3477342F
:0A0620007C3439345E3479347134CF
:1006A0002524F323FA230724172488240313831211
:1006B000D9185D2B5918772B602B5918DC2BC52BBB
:1006C0000514851005118511051A6F2B672B9D24C4
:1006D000AD249D25A501A601A701A801582BBD2485
:1006E000CD249D25AB01AC01AD01AE01582B051009
:1006F000851405118511051A862B7E2BDD24ED242A
:100700009D25B101B201B301B401582B3608023A5C
:10071000031D912B35081C3C0318BD2B1C30B50064
:10072000BD2B3608043A031D9C2B35081E3C0318CC
:10073000BD2B1E30B500BD2B3608063A031DA72B76
:1007400035081E3C0318BD2B1E30B500BD2B3608E6
:10075000093A031DB22B35081E3C0318BD2B1E3071
:10076000B500BD2B36080B3A031DBD2B35081E3CCA
:100770000318BD2B1E30B500BD2BFD240D259D2576
:10078000B701B801B901BA01582B0510851005153C
:100790008511051AD42BCC2B2D251D259D25BD019A
:1007A000BE01BF01C001582B4D253D259D25C3012C
:1007B000C401C501C601582B05108510051185150A
:1007C000051AEB2BE32B5D256D259D25C901CA017B
:1007D000CB01CC01582B7D258D259D25CF01D00146
:1007E000D101D201582B031383160F140F138F1648
:1007F0000F16080003138316811281110115811051
:10080000011403138312FC3081000B110800031341
:1008100083129010901190161016101310140313D9
:100820008312C2308F00F7308E000C1008000313C3
:10083000831631309200031383129214121412178C
:1008400092161216921512150800031783168801C6
:1008500089010313831685018701F0308800FE307B
:100860008900FF30860081131F3095000313831227
:100870008501870188018901A301A301A401A501C4
:10088000A601A701A801AB01AC01AD01AE01B10108
:10089000B201B301B401B701B801B901BA01D30182
:1008A000D401D801A001A101A201A901AA01AF01AF
:1008B000B001B501B601BB01C101BC01C201BD015E
:1008C000BE01BF01C001C301C401C501C601C7010A
:1008D000C801CD01CE01C901CA01CB01CC01CF01B4
:1008E000D001D101D201D901DA01DB01DC01DD0146
:1008F000A2010130AF000130B0000130B50001307D
:10090000B600BC01BB010130C100C701C80108002D
:10091000031383160C148C140313831616149614E5
:10092000161596151616031383120B178B178B16B5
:100930000B110C108C100B1008002108D8000A3085
:100940005802031CA62CD800A60A9F2C013058027E
:10095000031C0800D800A50AA62C2208D8000A30DB
:100960005802031CB62CD800A80AAF2C013058023C
:10097000031C0800D800A70AB62C2908D8000A30A2
:100980005802031CC62CD800AC0ABF2C01305802F8
:10099000031C0800D800AB0AC62C2A08D8000A306D
:1009A0005802031CD62CD800AE0ACF2C01305802B6
:1009B000031C0800D800AD0AD62C3008D8000A3035
:1009C0005802031CE62CD800B20ADF2C0130580272
:1009D000031C0800D800B10AE62C2F08D8000A3002
:1009E0005802031CF62CD800B40AEF2C0130580230
:1009F000031C0800D800B30AF62C3608D8000A30C9
:100A00005802031C062DD800B80AFF2C01305802EA
:100A1000031C0800D800B70A062D3508D8000A3094
:100A20005802031C162DD800BA0A0F2D01305802A7
:100A3000031C0800D800B90A162D3C08D8000A305B
:100A40005802031C262DD800BE0A1F2D0130580263
:100A5000031C0800D800BD0A262D3B08D8000A3028
:100A60005802031C362DD800C00A2F2D0130580221
:100A7000031C0800D800BF0A362D4208D8000A30EF
:100A80005802031C462DD800C40A3F2D01305802DD
:100A9000031C0800D800C30A462D4108D8000A30BC
:100AA0005802031C562DD800C60A4F2D013058029B
:100AB000031C0800D800C50A562D4708D8000A3084
:100AC0005802031C662DD800CA0A5F2D0130580257
:100AD000031C0800D800C90A662D4808D8000A304F
:100AE0005802031C762DD800CC0A6F2D0130580215
:100AF000031C0800D800CB0A762D4D08D8000A3018
:100B00005802031C862DD800D00A7F2D01305802D0
:100B1000031C0800D800CF0A862D4E08D8000A30E2
:100B20005802031C962DD800D20A8F2D013058028E
:100B3000031C0800D800D10A962D0518A52D85188C
:100B4000C22D0519DF2D8519FC2D051AA82DB52DEF
:100B50002B080023D7002C080023D6002D080023E3
:100B6000D5002E080023D400080025080023D70054
:100B700026080023D60027080023D50028080023D4
:100B8000D4000800051AC52DD22D37080023D70040
:100B900038080023D60039080023D5003A0800237E
:100BA000D400080031080023D70032080023D60003
:100BB00033080023D50034080023D4000800051AA8
:100BC000E22DEF2D45080023D70046080023D6006C
:100BD00043080023D50044080023D40008003F0840
:100BE0000023D70040080023D6003D080023D5008D
:100BF0003E080023D4000800051AFF2D0C2E4F08D4
:100C00000023D70050080023D60051080023D50048
:100C100052080023D400080049080023D7004A08DE
:100C20000023D6004B080023D5004C080023D40035
:100C300008000810881008118811051E252E202E86
:100C40005B18232E252E870108005C1C2B2ED41741
:100C5000D517D617D717D318302E5318392E332E51
:100C60005318452E3F2E540887000814D3105314F0
:100C70000800550887008814D3145310080056083C
:100C800087000815D31453140800570887008815E7
:060C9000D3105310080010
:04400E00D420FF3F7C
:00000001FF
